{
  "contractName": "optimized_healthCare",
  "abi": [
    {
      "inputs": [],
      "payable": false,
      "stateMutability": "nonpayable",
      "type": "constructor"
    },
    {
      "anonymous": false,
      "inputs": [
        {
          "indexed": false,
          "internalType": "address",
          "name": "_doctor",
          "type": "address"
        },
        {
          "indexed": false,
          "internalType": "string",
          "name": "message",
          "type": "string"
        }
      ],
      "name": "doctorSignUp",
      "type": "event"
    },
    {
      "anonymous": false,
      "inputs": [
        {
          "indexed": false,
          "internalType": "address",
          "name": "patient_address",
          "type": "address"
        },
        {
          "indexed": false,
          "internalType": "string",
          "name": "message",
          "type": "string"
        },
        {
          "indexed": false,
          "internalType": "string",
          "name": "_doctor",
          "type": "string"
        },
        {
          "indexed": false,
          "internalType": "address",
          "name": "doctor_address",
          "type": "address"
        }
      ],
      "name": "grantDoctorAccess",
      "type": "event"
    },
    {
      "anonymous": false,
      "inputs": [
        {
          "indexed": false,
          "internalType": "address",
          "name": "_patient",
          "type": "address"
        },
        {
          "indexed": false,
          "internalType": "string",
          "name": "message",
          "type": "string"
        }
      ],
      "name": "patientSignUp",
      "type": "event"
    },
    {
      "anonymous": false,
      "inputs": [
        {
          "indexed": false,
          "internalType": "address",
          "name": "patient_address",
          "type": "address"
        },
        {
          "indexed": false,
          "internalType": "string",
          "name": "message",
          "type": "string"
        },
        {
          "indexed": false,
          "internalType": "string",
          "name": "_doctor",
          "type": "string"
        },
        {
          "indexed": false,
          "internalType": "address",
          "name": "doctor_address",
          "type": "address"
        }
      ],
      "name": "revokeDoctorAccess",
      "type": "event"
    },
    {
      "constant": false,
      "inputs": [
        {
          "internalType": "address",
          "name": "_id",
          "type": "address"
        },
        {
          "internalType": "string",
          "name": "_name",
          "type": "string"
        },
        {
          "internalType": "string",
          "name": "_location",
          "type": "string"
        }
      ],
      "name": "hospitalSignUp",
      "outputs": [],
      "payable": false,
      "stateMutability": "nonpayable",
      "type": "function"
    },
    {
      "constant": false,
      "inputs": [
        {
          "internalType": "string",
          "name": "_name",
          "type": "string"
        },
        {
          "internalType": "string",
          "name": "_contact",
          "type": "string"
        },
        {
          "internalType": "string",
          "name": "_gender",
          "type": "string"
        }
      ],
      "name": "signupPatient",
      "outputs": [],
      "payable": false,
      "stateMutability": "nonpayable",
      "type": "function"
    },
    {
      "constant": false,
      "inputs": [
        {
          "internalType": "address",
          "name": "_id",
          "type": "address"
        },
        {
          "internalType": "string",
          "name": "_name",
          "type": "string"
        },
        {
          "internalType": "string",
          "name": "_contact",
          "type": "string"
        },
        {
          "internalType": "string",
          "name": "_specialization",
          "type": "string"
        }
      ],
      "name": "signupDoctor",
      "outputs": [],
      "payable": false,
      "stateMutability": "nonpayable",
      "type": "function"
    },
    {
      "constant": false,
      "inputs": [
        {
          "internalType": "address",
          "name": "doctor_id",
          "type": "address"
        }
      ],
      "name": "grantAccessToDoctor",
      "outputs": [],
      "payable": false,
      "stateMutability": "nonpayable",
      "type": "function"
    },
    {
      "constant": false,
      "inputs": [
        {
          "internalType": "address",
          "name": "doctor_id",
          "type": "address"
        }
      ],
      "name": "revokeAccessFromDoctor",
      "outputs": [],
      "payable": false,
      "stateMutability": "nonpayable",
      "type": "function"
    },
    {
      "constant": false,
      "inputs": [
        {
          "internalType": "string",
          "name": "_file_name",
          "type": "string"
        },
        {
          "internalType": "string",
          "name": "_file_type",
          "type": "string"
        },
        {
          "internalType": "string",
          "name": "_file_hash",
          "type": "string"
        }
      ],
      "name": "addUserFiles",
      "outputs": [],
      "payable": false,
      "stateMutability": "nonpayable",
      "type": "function"
    },
    {
      "constant": true,
      "inputs": [
        {
          "internalType": "address",
          "name": "sender",
          "type": "address"
        }
      ],
      "name": "getUserFiles",
      "outputs": [
        {
          "components": [
            {
              "internalType": "string",
              "name": "file_name",
              "type": "string"
            },
            {
              "internalType": "string",
              "name": "file_type",
              "type": "string"
            },
            {
              "internalType": "string",
              "name": "file_hash",
              "type": "string"
            }
          ],
          "internalType": "struct optimized_healthCare.files[]",
          "name": "",
          "type": "tuple[]"
        }
      ],
      "payable": false,
      "stateMutability": "view",
      "type": "function"
    },
    {
      "constant": true,
      "inputs": [],
      "name": "getPatientInfo",
      "outputs": [
        {
          "internalType": "string",
          "name": "",
          "type": "string"
        },
        {
          "internalType": "address",
          "name": "",
          "type": "address"
        },
        {
          "internalType": "string",
          "name": "",
          "type": "string"
        },
        {
          "internalType": "bytes32[]",
          "name": "",
          "type": "bytes32[]"
        },
        {
          "internalType": "address[]",
          "name": "",
          "type": "address[]"
        },
        {
          "internalType": "string",
          "name": "",
          "type": "string"
        },
        {
          "internalType": "string",
          "name": "",
          "type": "string"
        }
      ],
      "payable": false,
      "stateMutability": "view",
      "type": "function"
    },
    {
      "constant": true,
      "inputs": [],
      "name": "getDoctorInfo",
      "outputs": [
        {
          "internalType": "string",
          "name": "",
          "type": "string"
        },
        {
          "internalType": "address",
          "name": "",
          "type": "address"
        },
        {
          "internalType": "address[]",
          "name": "",
          "type": "address[]"
        },
        {
          "internalType": "string",
          "name": "",
          "type": "string"
        },
        {
          "internalType": "string",
          "name": "",
          "type": "string"
        }
      ],
      "payable": false,
      "stateMutability": "view",
      "type": "function"
    },
    {
      "constant": true,
      "inputs": [
        {
          "internalType": "uint64",
          "name": "_adhaar_number",
          "type": "uint64"
        }
      ],
      "name": "checkDoctorInfo",
      "outputs": [
        {
          "internalType": "bool",
          "name": "",
          "type": "bool"
        },
        {
          "internalType": "address",
          "name": "",
          "type": "address"
        }
      ],
      "payable": false,
      "stateMutability": "view",
      "type": "function"
    },
    {
      "constant": true,
      "inputs": [
        {
          "internalType": "uint64",
          "name": "_adhaar_number",
          "type": "uint64"
        }
      ],
      "name": "checkPatientInfo",
      "outputs": [
        {
          "internalType": "bool",
          "name": "",
          "type": "bool"
        },
        {
          "internalType": "address",
          "name": "",
          "type": "address"
        }
      ],
      "payable": false,
      "stateMutability": "view",
      "type": "function"
    },
    {
      "constant": true,
      "inputs": [
        {
          "internalType": "address",
          "name": "pat",
          "type": "address"
        }
      ],
      "name": "getPatientInfoForDoctor",
      "outputs": [
        {
          "internalType": "string",
          "name": "",
          "type": "string"
        },
        {
          "internalType": "string",
          "name": "",
          "type": "string"
        },
        {
          "internalType": "address",
          "name": "",
          "type": "address"
        },
        {
          "components": [
            {
              "internalType": "string",
              "name": "file_name",
              "type": "string"
            },
            {
              "internalType": "string",
              "name": "file_type",
              "type": "string"
            },
            {
              "internalType": "string",
              "name": "file_hash",
              "type": "string"
            }
          ],
          "internalType": "struct optimized_healthCare.files[]",
          "name": "",
          "type": "tuple[]"
        }
      ],
      "payable": false,
      "stateMutability": "view",
      "type": "function"
    },
    {
      "constant": true,
      "inputs": [],
      "name": "getHospitalInfo",
      "outputs": [
        {
          "internalType": "address",
          "name": "",
          "type": "address"
        },
        {
          "internalType": "string",
          "name": "",
          "type": "string"
        },
        {
          "internalType": "string",
          "name": "",
          "type": "string"
        }
      ],
      "payable": false,
      "stateMutability": "view",
      "type": "function"
    },
    {
      "constant": true,
      "inputs": [],
      "name": "getOwnerInfo",
      "outputs": [
        {
          "internalType": "address",
          "name": "",
          "type": "address"
        }
      ],
      "payable": false,
      "stateMutability": "view",
      "type": "function"
    },
    {
      "constant": false,
      "inputs": [
        {
          "internalType": "address",
          "name": "_user",
          "type": "address"
        },
        {
          "internalType": "address",
          "name": "_patient",
          "type": "address"
        }
      ],
      "name": "hospitalGrantAccess",
      "outputs": [],
      "payable": false,
      "stateMutability": "nonpayable",
      "type": "function"
    },
    {
      "constant": false,
      "inputs": [
        {
          "internalType": "address",
          "name": "_id",
          "type": "address"
        },
        {
          "internalType": "string",
          "name": "_name",
          "type": "string"
        },
        {
          "internalType": "string",
          "name": "_location",
          "type": "string"
        }
      ],
      "name": "addHospital",
      "outputs": [],
      "payable": false,
      "stateMutability": "nonpayable",
      "type": "function"
    },
    {
      "constant": false,
      "inputs": [
        {
          "internalType": "address",
          "name": "_id",
          "type": "address"
        },
        {
          "internalType": "string",
          "name": "_name",
          "type": "string"
        }
      ],
      "name": "regInsuranceComp",
      "outputs": [],
      "payable": false,
      "stateMutability": "nonpayable",
      "type": "function"
    },
    {
      "constant": true,
      "inputs": [],
      "name": "getInsuranceCompInfo",
      "outputs": [
        {
          "internalType": "address",
          "name": "",
          "type": "address"
        },
        {
          "internalType": "string",
          "name": "",
          "type": "string"
        },
        {
          "internalType": "address[]",
          "name": "",
          "type": "address[]"
        }
      ],
      "payable": false,
      "stateMutability": "view",
      "type": "function"
    },
    {
      "constant": false,
      "inputs": [
        {
          "internalType": "address",
          "name": "_insuranceComp",
          "type": "address"
        },
        {
          "internalType": "address",
          "name": "_pat",
          "type": "address"
        }
      ],
      "name": "addPatientToInsuranceComp",
      "outputs": [],
      "payable": false,
      "stateMutability": "nonpayable",
      "type": "function"
    },
    {
      "constant": false,
      "inputs": [
        {
          "internalType": "address",
          "name": "_doc",
          "type": "address"
        },
        {
          "internalType": "string",
          "name": "_name",
          "type": "string"
        },
        {
          "internalType": "string",
          "name": "_DOB",
          "type": "string"
        },
        {
          "internalType": "uint24",
          "name": "_pincode",
          "type": "uint24"
        },
        {
          "internalType": "uint64",
          "name": "_adhaar_number",
          "type": "uint64"
        }
      ],
      "name": "addDoctorAdhaarInfo",
      "outputs": [],
      "payable": false,
      "stateMutability": "nonpayable",
      "type": "function"
    },
    {
      "constant": false,
      "inputs": [
        {
          "internalType": "address",
          "name": "_pat",
          "type": "address"
        },
        {
          "internalType": "string",
          "name": "_name",
          "type": "string"
        },
        {
          "internalType": "string",
          "name": "_DOB",
          "type": "string"
        },
        {
          "internalType": "uint24",
          "name": "_pincode",
          "type": "uint24"
        },
        {
          "internalType": "uint64",
          "name": "_adhaar_number",
          "type": "uint64"
        }
      ],
      "name": "addPatientAdhaarInfo",
      "outputs": [],
      "payable": false,
      "stateMutability": "nonpayable",
      "type": "function"
    }
  ],
  "bytecode": "0x608060405234801561001057600080fd5b5060008054600160a060020a03191673599f48cdbae93efff8f8c8ff128aa966820893f81790556158e380620000476000396000f3fe608060405234801561001057600080fd5b5060043610610194576000357c010000000000000000000000000000000000000000000000000000000090048063828566fc116100f5578063b380f5c6116100a9578063c981893011610083578063c98189301461032b578063facf83231461033e578063fe59cc1a1461035357610194565b8063b380f5c6146102e8578063b609af2614610301578063c4fa7adb1461031457610194565b806397f7f06d116100da57806397f7f06d146102a1578063ab9cff18146102b4578063ae2ed42f146102c757610194565b8063828566fc1461027b578063859287b11461028e57610194565b8063326df6641161014c5780633b17c592116101315780633b17c5921461023e578063405b8af014610255578063629e559d1461026857610194565b8063326df664146102105780633b0e67ec1461022b57610194565b80631fd4be9b1161017d5780631fd4be9b146101d75780632ae48e40146101ea5780632cecb523146101fd57610194565b80631c8e251c146101995780631fc37922146101ae575b600080fd5b6101ac6101a7366004614e6e565b610376565b005b6101c16101bc366004614e6e565b610ad2565b6040516101ce919061560c565b60405180910390f35b6101ac6101e536600461503c565b610d0a565b6101ac6101f83660046150e1565b610fcc565b6101ac61020b366004614e94565b611063565b610218611503565b6040516101ce979695949392919061569d565b6101ac610239366004614f16565b611c67565b610246611ea8565b6040516101ce93929190615585565b6101ac610263366004614f93565b611ff4565b6101ac610276366004614e6e565b6123d2565b6101ac610289366004614f16565b612a8e565b6101ac61029c366004614ece565b612c1b565b6101ac6102af366004614e94565b612e0d565b6101ac6102c23660046150e1565b612eb0565b6102da6102d5366004615119565b61329b565b6040516101ce92919061561d565b6102f06137da565b6040516101ce959493929190615638565b6101ac61030f36600461503c565b613d38565b61031c613fb4565b6040516101ce939291906155b9565b6102da610339366004615119565b614126565b610346614575565b6040516101ce91906154f7565b610366610361366004614e6e565b61459e565b6040516101ce949392919061572c565b3361037f614b70565b600160a060020a03821660009081526002602081815260409283902083518154610120601f60001960018416156101009081029190910190931696909604958601859004909402820184019095529384018381529092849284919084018282801561042b5780601f106104005761010080835404028352916020019161042b565b820191906000526020600020905b81548152906001019060200180831161040e57829003601f168201915b50505050508152602001600182018054600181600116156101000203166002900480601f0160208091040260200160405190810160405280929190818152602001828054600181600116156101000203166002900480156104cd5780601f106104a2576101008083540402835291602001916104cd565b820191906000526020600020905b8154815290600101906020018083116104b057829003601f168201915b505050918352505060028281015467ffffffffffffffff811660208085019190915268010000000000000000909104600160a060020a031660408085019190915260038501805482516101006001831615026000190190911694909404601f8101849004840285018401909252818452606090940193918301828280156105955780601f1061056a57610100808354040283529160200191610595565b820191906000526020600020905b81548152906001019060200180831161057857829003601f168201915b505050918352505060048201805460408051602060026001851615610100026000190190941693909304601f81018490048402820184019092528181529382019392918301828280156106295780601f106105fe57610100808354040283529160200191610629565b820191906000526020600020905b81548152906001019060200180831161060c57829003601f168201915b505050505081526020016005820180548060200260200160405190810160405280929190818152602001828054801561068157602002820191906000526020600020905b81548152602001906001019080831161066d575b50505050508152602001600682018054806020026020016040519081016040528092919081815260200182805480156106e357602002820191906000526020600020905b8154600160a060020a031681526001909101906020018083116106c5575b50505050508152505090506000600160a060020a03168160600151600160a060020a03161161071157600080fd5b8261071a614bc8565b600160a060020a0382166000908152600160208181526040928390208351815460029481161561010002600019011693909304601f8101839004909202830160e090810190945260c0830182815292939092849290918491908401828280156107c45780601f10610799576101008083540402835291602001916107c4565b820191906000526020600020905b8154815290600101906020018083116107a757829003601f168201915b5050509183525050600182810154600160a060020a0381166020808501919091527401000000000000000000000000000000000000000090910467ffffffffffffffff166040808501919091526002808601805483516101009682161596909602600019011691909104601f8101849004840285018401909252818452606090940193918301828280156108995780601f1061086e57610100808354040283529160200191610899565b820191906000526020600020905b81548152906001019060200180831161087c57829003601f168201915b505050918352505060038201805460408051602060026001851615610100026000190190941693909304601f810184900484028201840190925281815293820193929183018282801561092d5780601f106109025761010080835404028352916020019161092d565b820191906000526020600020905b81548152906001019060200180831161091057829003601f168201915b505050505081526020016004820180548060200260200160405190810160405280929190818152602001828054801561098f57602002820191906000526020600020905b8154600160a060020a03168152600190910190602001808311610971575b50505050508152505090506000600160a060020a03168160200151600160a060020a0316116109bd57600080fd5b336000818152600260209081526040808320600160a060020a038a16808552600180855283862096865260038552838620918652935292205491929161ffff1610610a0757600080fd5b600682018054600180820180845560009384526020808520909301805473ffffffffffffffffffffffffffffffffffffffff19908116600160a060020a038e1690811790925533808752600386526040808820938852928652828720805461ffff191661ffff8616179055600488018054958601815587529490952090920180549094168317909355517fe239c4e608cb32aaf8ef7214f811e28ea27c91cad9f719be74579c18fc2e983191610ac09185908c90615524565b60405180910390a15050505050505050565b600160a060020a0381166000908152600560209081526040808320805482518185028101850190935280835260609492939192909184015b82821015610cff5760008481526020908190206040805160038602909201805460026001821615610100026000190190911604601f8101859004909402830160809081019092526060830184815292939092849290918491840182828015610bb35780601f10610b8857610100808354040283529160200191610bb3565b820191906000526020600020905b815481529060010190602001808311610b9657829003601f168201915b50505050508152602001600182018054600181600116156101000203166002900480601f016020809104026020016040519081016040528092919081815260200182805460018160011615610100020316600290048015610c555780601f10610c2a57610100808354040283529160200191610c55565b820191906000526020600020905b815481529060010190602001808311610c3857829003601f168201915b5050509183525050600282810180546040805160206001841615610100026000190190931694909404601f81018390048302850183019091528084529381019390830182828015610ce75780601f10610cbc57610100808354040283529160200191610ce7565b820191906000526020600020905b815481529060010190602001808311610cca57829003601f168201915b50505050508152505081526020019060010190610b0a565b505050509050919050565b610d12614c11565b600160a060020a03868116600090815260096020908152604091829020825160a081018452815494851681527401000000000000000000000000000000000000000090940467ffffffffffffffff1684830152600180820180548551600261010094831615949094026000190190911692909204601f81018590048502830185018652808352929486019391929091830182828015610df25780601f10610dc757610100808354040283529160200191610df2565b820191906000526020600020905b815481529060010190602001808311610dd557829003601f168201915b5050509183525050600282810180546040805160206001841615610100026000190190931694909404601f81018390048302850183019091528084529381019390830182828015610e845780601f10610e5957610100808354040283529160200191610e84565b820191906000526020600020905b815481529060010190602001808311610e6757829003601f168201915b50505091835250506003919091015462ffffff1660209182015281015190915067ffffffffffffffff1615610eb857600080fd5b6040805160a081018252600160a060020a0388811680835267ffffffffffffffff86811660208086019182528587018c8152606087018c905262ffffff8b1660808801526000948552600982529690932085518154925173ffffffffffffffffffffffffffffffffffffffff199093169516949094177fffffffff0000000000000000ffffffffffffffffffffffffffffffffffffffff167401000000000000000000000000000000000000000091909216021782559251805192939192610f869260018501920190614c58565b5060608201518051610fa2916002840191602090910190614c58565b50608091909101516003909101805462ffffff191662ffffff909216919091179055505050505050565b336000908152600560209081526040808320815160608101835287815280840187905291820185905280546001810180835591855293839020825180519295939460039094029091019261102592849290910190614c58565b50602082810151805161103e9260018501920190614c58565b506040820151805161105a916002840191602090910190614c58565b50505050505050565b8061106c614b70565b600160a060020a03821660009081526002602081815260409283902083518154610120601f6000196001841615610100908102919091019093169690960495860185900490940282018401909552938401838152909284928491908401828280156111185780601f106110ed57610100808354040283529160200191611118565b820191906000526020600020905b8154815290600101906020018083116110fb57829003601f168201915b50505050508152602001600182018054600181600116156101000203166002900480601f0160208091040260200160405190810160405280929190818152602001828054600181600116156101000203166002900480156111ba5780601f1061118f576101008083540402835291602001916111ba565b820191906000526020600020905b81548152906001019060200180831161119d57829003601f168201915b505050918352505060028281015467ffffffffffffffff811660208085019190915268010000000000000000909104600160a060020a031660408085019190915260038501805482516101006001831615026000190190911694909404601f8101849004840285018401909252818452606090940193918301828280156112825780601f1061125757610100808354040283529160200191611282565b820191906000526020600020905b81548152906001019060200180831161126557829003601f168201915b505050918352505060048201805460408051602060026001851615610100026000190190941693909304601f81018490048402820184019092528181529382019392918301828280156113165780601f106112eb57610100808354040283529160200191611316565b820191906000526020600020905b8154815290600101906020018083116112f957829003601f168201915b505050505081526020016005820180548060200260200160405190810160405280929190818152602001828054801561136e57602002820191906000526020600020905b81548152602001906001019080831161135a575b50505050508152602001600682018054806020026020016040519081016040528092919081815260200182805480156113d057602002820191906000526020600020905b8154600160a060020a031681526001909101906020018083116113b2575b50505050508152505090506000600160a060020a03168160600151600160a060020a0316116113fe57600080fd5b600160a060020a03808516600090815260016020818152604080842088861685526002909252909220908201549192909116156114fb57600160a060020a038086166000908152600360209081526040808320938a1683529290522054600161ffff9091161061146d57600080fd5b6006810180546001818101808455600093845260208085209093018054600160a060020a03808d1673ffffffffffffffffffffffffffffffffffffffff1992831681179093558b16808752600386526040808820938852928652918620805461ffff90941661ffff199094169390931790925560048701805493840181558552929093200180549092161790555b505050505050565b60606000606080606080606033611518614b70565b600160a060020a03821660009081526002602081815260409283902083518154610120601f6000196001841615610100908102919091019093169690960495860185900490940282018401909552938401838152909284928491908401828280156115c45780601f10611599576101008083540402835291602001916115c4565b820191906000526020600020905b8154815290600101906020018083116115a757829003601f168201915b50505050508152602001600182018054600181600116156101000203166002900480601f0160208091040260200160405190810160405280929190818152602001828054600181600116156101000203166002900480156116665780601f1061163b57610100808354040283529160200191611666565b820191906000526020600020905b81548152906001019060200180831161164957829003601f168201915b505050918352505060028281015467ffffffffffffffff811660208085019190915268010000000000000000909104600160a060020a031660408085019190915260038501805482516101006001831615026000190190911694909404601f81018490048402850184019092528184526060909401939183018282801561172e5780601f106117035761010080835404028352916020019161172e565b820191906000526020600020905b81548152906001019060200180831161171157829003601f168201915b505050918352505060048201805460408051602060026001851615610100026000190190941693909304601f81018490048402820184019092528181529382019392918301828280156117c25780601f10611797576101008083540402835291602001916117c2565b820191906000526020600020905b8154815290600101906020018083116117a557829003601f168201915b505050505081526020016005820180548060200260200160405190810160405280929190818152602001828054801561181a57602002820191906000526020600020905b815481526020019060010190808311611806575b505050505081526020016006820180548060200260200160405190810160405280929190818152602001828054801561187c57602002820191906000526020600020905b8154600160a060020a0316815260019091019060200180831161185e575b50505050508152505090506000600160a060020a03168160600151600160a060020a0316116118aa57600080fd5b6118b2614b70565b3360009081526002602081815260409283902083518154610120601f6000196001841615610100908102919091019093169690960495860185900490940282018401909552938401838152909284928491908401828280156119555780601f1061192a57610100808354040283529160200191611955565b820191906000526020600020905b81548152906001019060200180831161193857829003601f168201915b50505050508152602001600182018054600181600116156101000203166002900480601f0160208091040260200160405190810160405280929190818152602001828054600181600116156101000203166002900480156119f75780601f106119cc576101008083540402835291602001916119f7565b820191906000526020600020905b8154815290600101906020018083116119da57829003601f168201915b505050918352505060028281015467ffffffffffffffff811660208085019190915268010000000000000000909104600160a060020a031660408085019190915260038501805482516101006001831615026000190190911694909404601f810184900484028501840190925281845260609094019391830182828015611abf5780601f10611a9457610100808354040283529160200191611abf565b820191906000526020600020905b815481529060010190602001808311611aa257829003601f168201915b505050918352505060048201805460408051602060026001851615610100026000190190941693909304601f8101849004840282018401909252818152938201939291830182828015611b535780601f10611b2857610100808354040283529160200191611b53565b820191906000526020600020905b815481529060010190602001808311611b3657829003601f168201915b5050505050815260200160058201805480602002602001604051908101604052809291908181526020018280548015611bab57602002820191906000526020600020905b815481526020019060010190808311611b97575b5050505050815260200160068201805480602002602001604051908101604052809291908181526020018280548015611c0d57602002820191906000526020600020905b8154600160a060020a03168152600190910190602001808311611bef575b50505050508152505090508060000151816060015182602001518360c001518460e0015185608001518660a00151869650849450839350829250819150809050995099509950995099509950995050505090919293949596565b600054600160a060020a03163314611c7e57600080fd5b611c86614cd6565b600160a060020a03848116600090815260066020908152604091829020825160608101845281549094168452600180820180548551600261010094831615949094026000190190911692909204601f8101859004850283018501909552848252919385840193919291830182828015611d405780601f10611d1557610100808354040283529160200191611d40565b820191906000526020600020905b815481529060010190602001808311611d2357829003601f168201915b5050509183525050600282810180546040805160206001841615610100026000190190931694909404601f81018390048302850183019091528084529381019390830182828015611dd25780601f10611da757610100808354040283529160200191611dd2565b820191906000526020600020905b815481529060010190602001808311611db557829003601f168201915b505050919092525050815191925050600160a060020a031615611df457600080fd5b604051611e00906154ec565b604051809103902083604051602001611e1991906154e0565b604051602081830303815290604052805190602001201415611e3a57600080fd5b60408051606081018252600160a060020a038681168083526020808401888152848601889052600092835260068252949091208351815473ffffffffffffffffffffffffffffffffffffffff19169316929092178255925180519293919261103e9260018501920190614c58565b6000606080611eb5614cd6565b3360009081526007602090815260409182902082516060810184528154600160a060020a03168152600180830180548651600261010094831615949094026000190190911692909204601f8101869004860283018601909652858252919492938581019391929190830182828015611f6e5780601f10611f4357610100808354040283529160200191611f6e565b820191906000526020600020905b815481529060010190602001808311611f5157829003601f168201915b5050505050815260200160038201805480602002602001604051908101604052809291908181526020018280548015611fd057602002820191906000526020600020905b8154600160a060020a03168152600190910190602001808311611fb2575b50505091909252505081516020830151604090930151909792965094509092505050565b600160a060020a0384166000908152600160205260409020612014614c11565b600160a060020a03868116600090815260096020908152604091829020825160a081018452815494851681527401000000000000000000000000000000000000000090940467ffffffffffffffff1684830152600180820180548551600261010094831615949094026000190190911692909204601f810185900485028301850186528083529294860193919290918301828280156120f45780601f106120c9576101008083540402835291602001916120f4565b820191906000526020600020905b8154815290600101906020018083116120d757829003601f168201915b5050509183525050600282810180546040805160206001841615610100026000190190931694909404601f810183900483028501830190915280845293810193908301828280156121865780601f1061215b57610100808354040283529160200191612186565b820191906000526020600020905b81548152906001019060200180831161216957829003601f168201915b50505091835250506003919091015462ffffff166020909101526040519091506121af906154ec565b6040518091039020856040516020016121c891906154e0565b6040516020818303038152906040528051906020012014156121e957600080fd5b6001820154600160a060020a03161561220157600080fd5b6000816020015167ffffffffffffffff161161221c57600080fd5b6040518060c0016040528086815260200187600160a060020a03168152602001826020015167ffffffffffffffff1681526020018581526020018481526020016000604051908082528060200260200182016040528015612287578160200160208202803883390190505b509052600160a060020a03871660009081526001602090815260409091208251805191926122ba92849290910190614c58565b50602082810151600183018054604086015167ffffffffffffffff1674010000000000000000000000000000000000000000027fffffffff0000000000000000ffffffffffffffffffffffffffffffffffffffff600160a060020a0390941673ffffffffffffffffffffffffffffffffffffffff199092169190911792909216919091179055606083015180516123579260028501920190614c58565b5060808201518051612373916003840191602090910190614c58565b5060a0820151805161238f916004840191602090910190614d00565b509050507fdd0aa1d3beead09f31cc046643e0d63829e7c7f43e532c2523d978bc9c3bfb33866040516123c291906155ed565b60405180910390a1505050505050565b336123db614b70565b600160a060020a03821660009081526002602081815260409283902083518154610120601f6000196001841615610100908102919091019093169690960495860185900490940282018401909552938401838152909284928491908401828280156124875780601f1061245c57610100808354040283529160200191612487565b820191906000526020600020905b81548152906001019060200180831161246a57829003601f168201915b50505050508152602001600182018054600181600116156101000203166002900480601f0160208091040260200160405190810160405280929190818152602001828054600181600116156101000203166002900480156125295780601f106124fe57610100808354040283529160200191612529565b820191906000526020600020905b81548152906001019060200180831161250c57829003601f168201915b505050918352505060028281015467ffffffffffffffff811660208085019190915268010000000000000000909104600160a060020a031660408085019190915260038501805482516101006001831615026000190190911694909404601f8101849004840285018401909252818452606090940193918301828280156125f15780601f106125c6576101008083540402835291602001916125f1565b820191906000526020600020905b8154815290600101906020018083116125d457829003601f168201915b505050918352505060048201805460408051602060026001851615610100026000190190941693909304601f81018490048402820184019092528181529382019392918301828280156126855780601f1061265a57610100808354040283529160200191612685565b820191906000526020600020905b81548152906001019060200180831161266857829003601f168201915b50505050508152602001600582018054806020026020016040519081016040528092919081815260200182805480156126dd57602002820191906000526020600020905b8154815260200190600101908083116126c9575b505050505081526020016006820180548060200260200160405190810160405280929190818152602001828054801561273f57602002820191906000526020600020905b8154600160a060020a03168152600190910190602001808311612721575b50505050508152505090506000600160a060020a03168160600151600160a060020a03161161276d57600080fd5b336000908152600360209081526040808320600160a060020a038716845290915290205461ffff1661279e57600080fd5b336000818152600360209081526040808320600160a060020a038816808552908352818420805461ffff19169055938352600282528083209383526001909152812060068301549091805b8261ffff168161ffff1610156128415787600160a060020a0316856006018261ffff168154811061281657fe5b600091825260209091200154600160a060020a0316141561283957809150612841565b6001016127e9565b505b6001820361ffff168161ffff1610156128d657836006018160010161ffff168154811061286c57fe5b600091825260209091200154600685018054600160a060020a039092169161ffff841690811061289857fe5b6000918252602090912001805473ffffffffffffffffffffffffffffffffffffffff1916600160a060020a0392909216919091179055600101612843565b836006018054806128e357fe5b6000828152602081208201600019908101805473ffffffffffffffffffffffffffffffffffffffff19169055909101909155600484015492509050805b8261ffff168161ffff1610156129785733600160a060020a0316846004018261ffff168154811061294d57fe5b600091825260209091200154600160a060020a0316141561297057809150612978565b600101612920565b505b6001820361ffff168161ffff161015612a0d57826004018160010161ffff16815481106129a357fe5b600091825260209091200154600484018054600160a060020a039092169161ffff84169081106129cf57fe5b6000918252602090912001805473ffffffffffffffffffffffffffffffffffffffff1916600160a060020a039290921691909117905560010161297a565b82600401805480612a1a57fe5b6000828152602090208101600019908101805473ffffffffffffffffffffffffffffffffffffffff191690550190556040517f212bcbf580385b870fe82b11fdd99334c16d187419727ccfb2b89aea2f87278590612a7d90339086908b90615566565b60405180910390a150505050505050565b600054600160a060020a03163314612aa557600080fd5b612aad614cd6565b600160a060020a03848116600090815260066020908152604091829020825160608101845281549094168452600180820180548551600261010094831615949094026000190190911692909204601f8101859004850283018501909552848252919385840193919291830182828015612b675780601f10612b3c57610100808354040283529160200191612b67565b820191906000526020600020905b815481529060010190602001808311612b4a57829003601f168201915b5050509183525050600282810180546040805160206001841615610100026000190190931694909404601f81018390048302850183019091528084529381019390830182828015612bf95780601f10612bce57610100808354040283529160200191612bf9565b820191906000526020600020905b815481529060010190602001808311612bdc57829003601f168201915b505050919092525050815191925050600160a060020a031615611e3a57600080fd5b600054600160a060020a03163314612c3257600080fd5b612c3a614cd6565b600160a060020a03838116600090815260076020908152604091829020825160608101845281549094168452600180820180548551600261010094831615949094026000190190911692909204601f8101859004850283018501909552848252919385840193919291830182828015612cf45780601f10612cc957610100808354040283529160200191612cf4565b820191906000526020600020905b815481529060010190602001808311612cd757829003601f168201915b5050505050815260200160038201805480602002602001604051908101604052809291908181526020018280548015612d5657602002820191906000526020600020905b8154600160a060020a03168152600190910190602001808311612d38575b505050919092525050815191925050600160a060020a031615612d7857600080fd5b60408051606081018252600160a060020a0385811680835260208084018781528551600080825281840188528688019190915292835260078252949091208351815473ffffffffffffffffffffffffffffffffffffffff191693169290921782559251805192939192612df19260018501920190614c58565b50604082015180516114fb916003840191602090910190614d00565b600160a060020a038083166000908152600760209081526040808320938516835260028401909152902054600160ff90911610612e4957600080fd5b6003810180546001810180835560009283526020808420909201805473ffffffffffffffffffffffffffffffffffffffff1916600160a060020a03969096169586179055938252600290920190915260409020805460ff191660ff90921691909117905550565b336000908152600260205260409020612ec7614c11565b33600090815260086020908152604091829020825160a0810184528154600160a060020a038116825274010000000000000000000000000000000000000000900467ffffffffffffffff1681840152600180830180548651600261010094831615949094026000190190911692909204601f81018690048602830186018752808352929593949386019391929091830182828015612fa65780601f10612f7b57610100808354040283529160200191612fa6565b820191906000526020600020905b815481529060010190602001808311612f8957829003601f168201915b5050509183525050600282810180546040805160206001841615610100026000190190931694909404601f810183900483028501830190915280845293810193908301828280156130385780601f1061300d57610100808354040283529160200191613038565b820191906000526020600020905b81548152906001019060200180831161301b57829003601f168201915b50505091835250506003919091015462ffffff166020909101526002830154909150680100000000000000009004600160a060020a031661307857600080fd5b6000816020015167ffffffffffffffff161161309357600080fd5b60405180610100016040528086815260200182606001518152602001826020015167ffffffffffffffff16815260200133600160a060020a031681526020018481526020018581526020016000604051908082528060200260200182016040528015613109578160200160208202803883390190505b508152602001600060405190808252806020026020018201604052801561313a578160200160208202803883390190505b50905233600090815260026020908152604090912082518051919261316492849290910190614c58565b50602082810151805161317d9260018501920190614c58565b5060408201516002820180546060850151600160a060020a031668010000000000000000027fffffffff0000000000000000000000000000000000000000ffffffffffffffff67ffffffffffffffff90941667ffffffffffffffff19909216919091179290921691909117905560808201518051613205916003840191602090910190614c58565b5060a08201518051613221916004840191602090910190614c58565b5060c0820151805161323d916005840191602090910190614d6e565b5060e08201518051613259916006840191602090910190614d00565b509050507ff0c358f29581a43889abe78660babebd0ac62878d0ed89571af6c2168bbcda0c3360405161328c9190615505565b60405180910390a15050505050565b6000806132a6614b70565b3360009081526002602081815260409283902083518154610120601f6000196001841615610100908102919091019093169690960495860185900490940282018401909552938401838152909284928491908401828280156133495780601f1061331e57610100808354040283529160200191613349565b820191906000526020600020905b81548152906001019060200180831161332c57829003601f168201915b50505050508152602001600182018054600181600116156101000203166002900480601f0160208091040260200160405190810160405280929190818152602001828054600181600116156101000203166002900480156133eb5780601f106133c0576101008083540402835291602001916133eb565b820191906000526020600020905b8154815290600101906020018083116133ce57829003601f168201915b505050918352505060028281015467ffffffffffffffff811660208085019190915268010000000000000000909104600160a060020a031660408085019190915260038501805482516101006001831615026000190190911694909404601f8101849004840285018401909252818452606090940193918301828280156134b35780601f10613488576101008083540402835291602001916134b3565b820191906000526020600020905b81548152906001019060200180831161349657829003601f168201915b505050918352505060048201805460408051602060026001851615610100026000190190941693909304601f81018490048402820184019092528181529382019392918301828280156135475780601f1061351c57610100808354040283529160200191613547565b820191906000526020600020905b81548152906001019060200180831161352a57829003601f168201915b505050505081526020016005820180548060200260200160405190810160405280929190818152602001828054801561359f57602002820191906000526020600020905b81548152602001906001019080831161358b575b505050505081526020016006820180548060200260200160405190810160405280929190818152602001828054801561360157602002820191906000526020600020905b8154600160a060020a031681526001909101906020018083116135e3575b5050505050815250509050613614614c11565b33600090815260086020908152604091829020825160a0810184528154600160a060020a038116825274010000000000000000000000000000000000000000900467ffffffffffffffff1681840152600180830180548651600261010094831615949094026000190190911692909204601f810186900486028301860187528083529295939493860193919290918301828280156136f35780601f106136c8576101008083540402835291602001916136f3565b820191906000526020600020905b8154815290600101906020018083116136d657829003601f168201915b5050509183525050600282810180546040805160206001841615610100026000190190931694909404601f810183900483028501830190915280845293810193908301828280156137855780601f1061375a57610100808354040283529160200191613785565b820191906000526020600020905b81548152906001019060200180831161376857829003601f168201915b50505091835250506003919091015462ffffff1660209182015281015190915067ffffffffffffffff868116911614156137c95750606001516001925090506137d5565b50606001516000925090505b915091565b606060006060806060336137ec614bc8565b600160a060020a0382166000908152600160208181526040928390208351815460029481161561010002600019011693909304601f8101839004909202830160e090810190945260c0830182815292939092849290918491908401828280156138965780601f1061386b57610100808354040283529160200191613896565b820191906000526020600020905b81548152906001019060200180831161387957829003601f168201915b5050509183525050600182810154600160a060020a0381166020808501919091527401000000000000000000000000000000000000000090910467ffffffffffffffff166040808501919091526002808601805483516101009682161596909602600019011691909104601f81018490048402850184019092528184526060909401939183018282801561396b5780601f106139405761010080835404028352916020019161396b565b820191906000526020600020905b81548152906001019060200180831161394e57829003601f168201915b505050918352505060038201805460408051602060026001851615610100026000190190941693909304601f81018490048402820184019092528181529382019392918301828280156139ff5780601f106139d4576101008083540402835291602001916139ff565b820191906000526020600020905b8154815290600101906020018083116139e257829003601f168201915b5050505050815260200160048201805480602002602001604051908101604052809291908181526020018280548015613a6157602002820191906000526020600020905b8154600160a060020a03168152600190910190602001808311613a43575b50505050508152505090506000600160a060020a03168160200151600160a060020a031611613a8f57600080fd5b613a97614bc8565b336000908152600160208181526040928390208351815460029481161561010002600019011693909304601f8101839004909202830160e090810190945260c083018281529293909284929091849190840182828015613b385780601f10613b0d57610100808354040283529160200191613b38565b820191906000526020600020905b815481529060010190602001808311613b1b57829003601f168201915b5050509183525050600182810154600160a060020a0381166020808501919091527401000000000000000000000000000000000000000090910467ffffffffffffffff166040808501919091526002808601805483516101009682161596909602600019011691909104601f810184900484028501840190925281845260609094019391830182828015613c0d5780601f10613be257610100808354040283529160200191613c0d565b820191906000526020600020905b815481529060010190602001808311613bf057829003601f168201915b505050918352505060038201805460408051602060026001851615610100026000190190941693909304601f8101849004840282018401909252818152938201939291830182828015613ca15780601f10613c7657610100808354040283529160200191613ca1565b820191906000526020600020905b815481529060010190602001808311613c8457829003601f168201915b5050505050815260200160048201805480602002602001604051908101604052809291908181526020018280548015613d0357602002820191906000526020600020905b8154600160a060020a03168152600190910190602001808311613ce5575b5050509190925250508151602083015160a08401516060850151608090950151929d919c509a50929850965090945050505050565b613d40614c11565b600160a060020a03868116600090815260086020908152604091829020825160a081018452815494851681527401000000000000000000000000000000000000000090940467ffffffffffffffff1684830152600180820180548551600261010094831615949094026000190190911692909204601f81018590048502830185018652808352929486019391929091830182828015613e205780601f10613df557610100808354040283529160200191613e20565b820191906000526020600020905b815481529060010190602001808311613e0357829003601f168201915b5050509183525050600282810180546040805160206001841615610100026000190190931694909404601f81018390048302850183019091528084529381019390830182828015613eb25780601f10613e8757610100808354040283529160200191613eb2565b820191906000526020600020905b815481529060010190602001808311613e9557829003601f168201915b50505091835250506003919091015462ffffff1660209182015281015190915067ffffffffffffffff1615613ee657600080fd5b6040805160a081018252600160a060020a0388811680835267ffffffffffffffff86811660208086019182528587018c8152606087018c905262ffffff8b1660808801526000948552600882529690932085518154925173ffffffffffffffffffffffffffffffffffffffff199093169516949094177fffffffff0000000000000000ffffffffffffffffffffffffffffffffffffffff167401000000000000000000000000000000000000000091909216021782559251805192939192610f869260018501920190614c58565b6000606080613fc1614cd6565b3360009081526006602090815260409182902082516060810184528154600160a060020a03168152600180830180548651600261010094831615949094026000190190911692909204601f810186900486028301860190965285825291949293858101939192919083018282801561407a5780601f1061404f5761010080835404028352916020019161407a565b820191906000526020600020905b81548152906001019060200180831161405d57829003601f168201915b5050509183525050600282810180546040805160206001841615610100026000190190931694909404601f81018390048302850183019091528084529381019390830182828015611fd05780601f106140e157610100808354040283529160200191611fd0565b820191906000526020600020905b8154815290600101906020018083116140ef5750505091909252505081516020830151604090930151909792965094509092505050565b600080614131614bc8565b336000908152600160208181526040928390208351815460029481161561010002600019011693909304601f8101839004909202830160e090810190945260c0830182815292939092849290918491908401828280156141d25780601f106141a7576101008083540402835291602001916141d2565b820191906000526020600020905b8154815290600101906020018083116141b557829003601f168201915b5050509183525050600182810154600160a060020a0381166020808501919091527401000000000000000000000000000000000000000090910467ffffffffffffffff166040808501919091526002808601805483516101009682161596909602600019011691909104601f8101849004840285018401909252818452606090940193918301828280156142a75780601f1061427c576101008083540402835291602001916142a7565b820191906000526020600020905b81548152906001019060200180831161428a57829003601f168201915b505050918352505060038201805460408051602060026001851615610100026000190190941693909304601f810184900484028201840190925281815293820193929183018282801561433b5780601f106143105761010080835404028352916020019161433b565b820191906000526020600020905b81548152906001019060200180831161431e57829003601f168201915b505050505081526020016004820180548060200260200160405190810160405280929190818152602001828054801561439d57602002820191906000526020600020905b8154600160a060020a0316815260019091019060200180831161437f575b50505050508152505090506143b0614c11565b33600090815260096020908152604091829020825160a0810184528154600160a060020a038116825274010000000000000000000000000000000000000000900467ffffffffffffffff1681840152600180830180548651600261010094831615949094026000190190911692909204601f8101869004860283018601875280835292959394938601939192909183018282801561448f5780601f106144645761010080835404028352916020019161448f565b820191906000526020600020905b81548152906001019060200180831161447257829003601f168201915b5050509183525050600282810180546040805160206001841615610100026000190190931694909404601f810183900483028501830190915280845293810193908301828280156145215780601f106144f657610100808354040283529160200191614521565b820191906000526020600020905b81548152906001019060200180831161450457829003601f168201915b50505091835250506003919091015462ffffff1660209182015281015190915067ffffffffffffffff868116911614156145655750602001516001925090506137d5565b50602001516000925090506137d5565b60008054600160a060020a0316331461458d57600080fd5b50600054600160a060020a03165b90565b606080600060606145ad614b70565b600160a060020a03861660009081526002602081815260409283902083518154610120601f6000196001841615610100908102919091019093169690960495860185900490940282018401909552938401838152909284928491908401828280156146595780601f1061462e57610100808354040283529160200191614659565b820191906000526020600020905b81548152906001019060200180831161463c57829003601f168201915b50505050508152602001600182018054600181600116156101000203166002900480601f0160208091040260200160405190810160405280929190818152602001828054600181600116156101000203166002900480156146fb5780601f106146d0576101008083540402835291602001916146fb565b820191906000526020600020905b8154815290600101906020018083116146de57829003601f168201915b505050918352505060028281015467ffffffffffffffff811660208085019190915268010000000000000000909104600160a060020a031660408085019190915260038501805482516101006001831615026000190190911694909404601f8101849004840285018401909252818452606090940193918301828280156147c35780601f10614798576101008083540402835291602001916147c3565b820191906000526020600020905b8154815290600101906020018083116147a657829003601f168201915b505050918352505060048201805460408051602060026001851615610100026000190190941693909304601f81018490048402820184019092528181529382019392918301828280156148575780601f1061482c57610100808354040283529160200191614857565b820191906000526020600020905b81548152906001019060200180831161483a57829003601f168201915b50505050508152602001600582018054806020026020016040519081016040528092919081815260200182805480156148af57602002820191906000526020600020905b81548152602001906001019080831161489b575b505050505081526020016006820180548060200260200160405190810160405280929190818152602001828054801561491157602002820191906000526020600020905b8154600160a060020a031681526001909101906020018083116148f3575b50505091909252505081516020808401516060850151600160a060020a038c166000908152600584526040808220805482518188028101880190935280835298995095979396509194939192849290919084015b82821015614b5a5760008481526020908190206040805160038602909201805460026001821615610100026000190190911604601f8101859004909402830160809081019092526060830184815292939092849290918491840182828015614a0e5780601f106149e357610100808354040283529160200191614a0e565b820191906000526020600020905b8154815290600101906020018083116149f157829003601f168201915b50505050508152602001600182018054600181600116156101000203166002900480601f016020809104026020016040519081016040528092919081815260200182805460018160011615610100020316600290048015614ab05780601f10614a8557610100808354040283529160200191614ab0565b820191906000526020600020905b815481529060010190602001808311614a9357829003601f168201915b5050509183525050600282810180546040805160206001841615610100026000190190931694909404601f81018390048302850183019091528084529381019390830182828015614b425780601f10614b1757610100808354040283529160200191614b42565b820191906000526020600020905b815481529060010190602001808311614b2557829003601f168201915b50505050508152505081526020019060010190614965565b5050505090509450945094509450509193509193565b6040518061010001604052806060815260200160608152602001600067ffffffffffffffff1681526020016000600160a060020a03168152602001606081526020016060815260200160608152602001606081525090565b6040518060c00160405280606081526020016000600160a060020a03168152602001600067ffffffffffffffff1681526020016060815260200160608152602001606081525090565b6040518060a001604052806000600160a060020a03168152602001600067ffffffffffffffff1681526020016060815260200160608152602001600062ffffff1681525090565b828054600181600116156101000203166002900490600052602060002090601f016020900481019282601f10614c9957805160ff1916838001178555614cc6565b82800160010185558215614cc6579182015b82811115614cc6578251825591602001919060010190614cab565b50614cd2929150614da8565b5090565b60405180606001604052806000600160a060020a0316815260200160608152602001606081525090565b828054828255906000526020600020908101928215614d62579160200282015b82811115614d62578251825473ffffffffffffffffffffffffffffffffffffffff1916600160a060020a03909116178255602090920191600190910190614d20565b50614cd2929150614dc2565b828054828255906000526020600020908101928215614cc65791602002820182811115614cc6578251825591602001919060010190614cab565b61459b91905b80821115614cd25760008155600101614dae565b61459b91905b80821115614cd257805473ffffffffffffffffffffffffffffffffffffffff19168155600101614dc8565b8035614dfe81615877565b92915050565b600082601f830112614e1557600080fd5b8135614e28614e23826157a3565b61577c565b91508082526020830160208301858383011115614e4457600080fd5b614e4f838284615831565b50505092915050565b8035614dfe8161588e565b8035614dfe81615897565b600060208284031215614e8057600080fd5b6000614e8c8484614df3565b949350505050565b60008060408385031215614ea757600080fd5b6000614eb38585614df3565b9250506020614ec485828601614df3565b9150509250929050565b60008060408385031215614ee157600080fd5b6000614eed8585614df3565b925050602083013567ffffffffffffffff811115614f0a57600080fd5b614ec485828601614e04565b600080600060608486031215614f2b57600080fd5b6000614f378686614df3565b935050602084013567ffffffffffffffff811115614f5457600080fd5b614f6086828701614e04565b925050604084013567ffffffffffffffff811115614f7d57600080fd5b614f8986828701614e04565b9150509250925092565b60008060008060808587031215614fa957600080fd5b6000614fb58787614df3565b945050602085013567ffffffffffffffff811115614fd257600080fd5b614fde87828801614e04565b935050604085013567ffffffffffffffff811115614ffb57600080fd5b61500787828801614e04565b925050606085013567ffffffffffffffff81111561502457600080fd5b61503087828801614e04565b91505092959194509250565b600080600080600060a0868803121561505457600080fd5b60006150608888614df3565b955050602086013567ffffffffffffffff81111561507d57600080fd5b61508988828901614e04565b945050604086013567ffffffffffffffff8111156150a657600080fd5b6150b288828901614e04565b93505060606150c388828901614e58565b92505060806150d488828901614e63565b9150509295509295909350565b6000806000606084860312156150f657600080fd5b833567ffffffffffffffff81111561510d57600080fd5b614f3786828701614e04565b60006020828403121561512b57600080fd5b6000614e8c8484614e63565b60006151438383615179565b505060200190565b600061514383836152a0565b6000615163838361548b565b9392505050565b61517381615820565b82525050565b615173816157ef565b600061518d826157dd565b61519781856157e1565b93506151a2836157cb565b8060005b838110156151d05781516151ba8882615137565b97506151c5836157cb565b9250506001016151a6565b509495945050505050565b60006151e6826157dd565b6151f081856157e1565b93506151fb836157cb565b8060005b838110156151d0578151615213888261514b565b975061521e836157cb565b9250506001016151ff565b6000615234826157dd565b61523e81856157e1565b935083602082028501615250856157cb565b8060005b8581101561528a578484038952815161526d8582615157565b9450615278836157cb565b60209a909a0199925050600101615254565b5091979650505050505050565b615173816157fa565b6151738161459b565b60006152b4826157dd565b6152be81856157e1565b93506152ce81856020860161583d565b6152d78161586d565b9093019392505050565b60006152ec826157dd565b6152f681856157ea565b935061530681856020860161583d565b9290920192915050565b60008154600181166000811461532d576001811461535357615392565b607f600283041661533e81876157e1565b60ff1984168152955050602085019250615392565b6002820461536181876157e1565b955061536c856157d1565b60005b8281101561538b5781548882015260019091019060200161536f565b8701945050505b505092915050565b60006153a76014836157e1565b7f5265676973746572656420617320446f63746f72000000000000000000000000815260200192915050565b60006153e06015836157e1565b7f526567697374657265642061732050617469656e740000000000000000000000815260200192915050565b60006154196018836157e1565b7f4772616e7465642061636365737320746f20646f63746f720000000000000000815260200192915050565b60006154526018836157e1565b7f5265766f6b656420616363657373206f6620646f63746f720000000000000000815260200192915050565b6000614dfe6000836157ea565b80516060808452600091908401906154a382826152a9565b915050602083015184820360208601526154bd82826152a9565b915050604083015184820360408601526154d782826152a9565b95945050505050565b600061516382846152e1565b6000614dfe8261547e565b60208101614dfe8284615179565b60408101615513828461516a565b8181036020830152615163816153d3565b60808101615532828661516a565b81810360208301526155438161540c565b905081810360408301526155578185615310565b9050614e8c6060830184615179565b60808101615574828661516a565b818103602083015261554381615445565b606081016155938286615179565b81810360208301526155a581856152a9565b905081810360408301526154d78184615182565b606081016155c78286615179565b81810360208301526155d981856152a9565b905081810360408301526154d781846152a9565b604081016155fb8284615179565b81810360208301526151638161539a565b602080825281016151638184615229565b6040810161562b8285615297565b6151636020830184615179565b60a0808252810161564981886152a9565b90506156586020830187615179565b818103604083015261566a8186615182565b9050818103606083015261567e81856152a9565b9050818103608083015261569281846152a9565b979650505050505050565b60e080825281016156ae818a6152a9565b90506156bd6020830189615179565b81810360408301526156cf81886152a9565b905081810360608301526156e381876151db565b905081810360808301526156f78186615182565b905081810360a083015261570b81856152a9565b905081810360c083015261571f81846152a9565b9998505050505050505050565b6080808252810161573d81876152a9565b9050818103602083015261575181866152a9565b90506157606040830185615179565b81810360608301526157728184615229565b9695505050505050565b60405181810167ffffffffffffffff8111828210171561579b57600080fd5b604052919050565b600067ffffffffffffffff8211156157ba57600080fd5b506020601f91909101601f19160190565b60200190565b60009081526020902090565b5190565b90815260200190565b919050565b6000614dfe826157ff565b151590565b600160a060020a031690565b62ffffff1690565b67ffffffffffffffff1690565b6000614dfe826000614dfe826157ef565b82818337506000910152565b60005b83811015615858578181015183820152602001615840565b83811115615867576000848401525b50505050565b601f01601f191690565b615880816157ef565b811461588b57600080fd5b50565b6158808161580b565b6158808161581356fea365627a7a72315820ea6964b17f6a1d3893dff114dcae91e63639292b4d41776902b83a650125c3cb6c6578706572696d656e74616cf564736f6c63430005110040",
  "source": "pragma solidity >=0.4.21 <0.7.0;\r\npragma experimental ABIEncoderV2;\r\n\r\n\r\ncontract optimized_healthCare {\r\n\r\n  address private owner;\r\n  mapping (address => doctor) private doctors;\r\n  \r\n  mapping (address => patient) private patients; //mapping patients to their addresses\r\n  mapping (address => mapping (address => uint16)) private patientToDoctor; //patients and list of doctors allowed access to\r\n  mapping (address => mapping (bytes32 => uint16)) private patientToFile; //files mapped to patients\r\n  mapping (address => files[]) private patientFiles;\r\n  mapping (address => hospital) private hospitals;\r\n  mapping (address => insuranceComp) insuranceCompanies;\r\n  // mapping (address => doctorAddedFiles[]) private doctorAddedPatientFiles;\r\n  // mapping (address => doctorOfferedConsultation[]) private doctorOfferedConsultationList;\r\n  mapping (address => adhaar) patient_adhaar_info;\r\n  mapping (address => adhaar) doctor_adhaar_info;\r\n\r\n  struct adhaar{\r\n    address id;\r\n    uint64 adhaar_number;\r\n    string name;\r\n    string DOB;\r\n    uint24 pincode;\r\n  }\r\n\r\n  //structure of patient file\r\n  struct files{\r\n      string file_name;\r\n      string file_type;\r\n      string file_hash;\r\n  }\r\n  \r\n  //structure of hospital\r\n  struct hospital{\r\n    address id;  \r\n    string name;\r\n    string location;\r\n  }\r\n  \r\n  //structure of Insurance companies\r\n  struct insuranceComp{\r\n    address id;  \r\n    string name;\r\n    mapping (address => uint8) regPatientsMapping;\r\n    address[] regPatients;\r\n  }\r\n  \r\n\r\n  //structure of patient info\r\n  struct patient {\r\n    string name;\r\n    string DOB;\r\n    uint64 adhaar_number;\r\n    address id;\r\n    string gender;\r\n    string contact_info;\r\n\r\n    bytes32[] files;// hashes of file that belong to this user for display purpose\r\n    address[] doctor_list;\r\n  }\r\n  \r\n \r\n  //structure of doctor info\r\n  struct doctor {\r\n      string name;\r\n      address id;\r\n      uint64 adhaar_number;\r\n      string contact;\r\n      string specialization;\r\n      address[] patient_list;\r\n  }\r\n\r\n  //setting the owner\r\n  constructor() public {\r\n    owner = 0x599F48cDbaE93eFFf8f8C8ff128Aa966820893F8;\r\n  }\r\n  \r\n  //verify doctor \r\n  modifier checkDoctor(address id) {\r\n    doctor memory d = doctors[id];\r\n    require(d.id > address(0x0));//check if doctor exist\r\n    _;\r\n  }\r\n  \r\n  //verify patient\r\n  modifier checkPatient(address id) {\r\n    patient memory p = patients[id];\r\n    require(p.id > address(0x0));//check if patient exist\r\n    _;\r\n  }\r\n\r\n \r\n  //owner verification modifier\r\n  modifier onlyOwner() {\r\n    require(msg.sender == owner);\r\n    _;\r\n  }\r\n   \r\n\r\n\r\n  function hospitalSignUp(address _id, string memory _name, string memory _location ) public onlyOwner() {\r\n    \r\n    hospital memory h= hospitals[_id];\r\n    require(!(h.id > address(0x0)));\r\n    require(keccak256(abi.encodePacked(_name)) != keccak256(\"\"));\r\n    hospitals[_id] = hospital({id:_id, name:_name, location: _location});\r\n  }\r\n\r\n  //Event to emit when new patient registers\r\n  event patientSignUp( address _patient, string message);\r\n\r\n  function signupPatient(string memory _name, string memory _contact, string memory _gender) public {\r\n    \r\n    //search for patient on blockchain by address \r\n    patient storage p = patients[msg.sender];\r\n    adhaar memory a = patient_adhaar_info[msg.sender];\r\n    //Check if the patient already exists by address\r\n    require(p.id != address(0));\r\n    //Add patient to blockchain\r\n    require(a.adhaar_number > 0);\r\n\r\n    patients[msg.sender] = patient({name:_name, DOB: a.DOB, id:msg.sender, adhaar_number: a.adhaar_number, gender:_gender, contact_info:_contact, files:new bytes32[](0), doctor_list:new address[](0)});\r\n    \r\n\r\n    emit patientSignUp( msg.sender, \"Registered as Patient\");\r\n  }\r\n  \r\n\r\n  //Event to emit when new doctor registers\r\n  event doctorSignUp(address _doctor, string message);\r\n\r\n  function signupDoctor(address _id, string memory _name, string memory _contact, string memory _specialization) public {\r\n\r\n      //search for doctor on blockchain\r\n      doctor storage d = doctors[_id];\r\n      adhaar memory a = doctor_adhaar_info[_id];\r\n      //check name of doctor\r\n      require(keccak256(abi.encodePacked(_name)) != keccak256(\"\"));\r\n      //check if doctor already exists\r\n      require(!(d.id > address(0x0)));\r\n\r\n      require(a.adhaar_number > 0);\r\n      //Add the doctor to blockchain\r\n      doctors[_id] = doctor({name:_name, id:_id, contact:_contact, adhaar_number: a.adhaar_number, specialization: _specialization, patient_list:new address[](0)});\r\n     \r\n      emit doctorSignUp(_id, \"Registered as Doctor\");\r\n  }\r\n\r\n\r\n  //Event to emit when patient grants access to doctor\r\n  event grantDoctorAccess( address patient_address, string message, string _doctor, address doctor_address);\r\n  \r\n  function grantAccessToDoctor(address doctor_id) public checkPatient(msg.sender) checkDoctor(doctor_id) {\r\n      \r\n      patient storage p = patients[msg.sender];\r\n      doctor storage d = doctors[doctor_id];\r\n      require(patientToDoctor[msg.sender][doctor_id] < 1);// this means doctor already been access\r\n      \r\n      uint16 pos = (uint16)(p.doctor_list.push(doctor_id));// new length of array\r\n      \r\n      patientToDoctor[msg.sender][doctor_id] = pos;\r\n      d.patient_list.push(msg.sender);\r\n\r\n   \r\n      \r\n      emit grantDoctorAccess( msg.sender , \"Granted access to doctor\", d.name , doctor_id);\r\n  }\r\n\r\n  //Event to emit when patient revokes a doctor's access\r\n  event revokeDoctorAccess(address patient_address, string message, string _doctor, address doctor_address);\r\n\r\n  function revokeAccessFromDoctor(address doctor_id) public checkPatient(msg.sender){\r\n    require(patientToDoctor[msg.sender][doctor_id] > 0);\r\n    patientToDoctor[msg.sender][doctor_id] = 0;\r\n\r\n\r\n    patient storage p = patients[msg.sender];\r\n    doctor storage d = doctors[doctor_id];\r\n\r\n    uint16 pdlength= (uint16)(p.doctor_list.length);\r\n    uint16 pos=0;\r\n\r\n    for (uint16 i = 0; i < pdlength; i++) {\r\n      if(p.doctor_list[i] == doctor_id)\r\n      {\r\n        pos=i;\r\n        break;\r\n      }\r\n    }\r\n\r\n    for(;pos<pdlength-1;pos++)\r\n    {\r\n      p.doctor_list[pos]= p.doctor_list[pos+1];\r\n    }\r\n\r\n    p.doctor_list.pop();\r\n\r\n    pdlength= (uint16)(d.patient_list.length);\r\n    pos=0;\r\n\r\n    for (uint16 i = 0; i < pdlength; i++) {\r\n      if(d.patient_list[i] == msg.sender)\r\n      {\r\n        pos=i;\r\n        break;\r\n      }\r\n    }\r\n\r\n    for(;pos<pdlength-1;pos++)\r\n    {\r\n      d.patient_list[pos]= d.patient_list[pos+1];\r\n    }\r\n\r\n    d.patient_list.pop();\r\n\r\n    emit revokeDoctorAccess(msg.sender, \"Revoked access of doctor\", d.name, doctor_id);\r\n  }\r\n  \r\n\r\n\r\n  function addUserFiles(string memory _file_name, string memory _file_type,string memory _file_hash) public{\r\n\r\n    patientFiles[msg.sender].push(files({file_name:_file_name, file_type:_file_type,file_hash:_file_hash}));\r\n\r\n  }\r\n\r\n\r\n  function getUserFiles(address sender)public view returns(files[] memory){\r\n      return patientFiles[sender];\r\n  }\r\n\r\n\r\n\r\n  function getPatientInfo() public view checkPatient(msg.sender) returns(string memory,address, string memory, bytes32[] memory , address[] memory, string memory, string memory) {\r\n      \r\n    patient memory p = patients[msg.sender];\r\n    return (p.name, p.id, p.DOB, p.files, p.doctor_list, p.gender, p.contact_info );\r\n  }\r\n\r\n\r\n\r\n  function getDoctorInfo() public view checkDoctor(msg.sender) returns(string memory, address, address[] memory, string memory, string memory) {\r\n      doctor memory d = doctors[msg.sender];\r\n\r\n      return (d.name, d.id, d.patient_list, d.contact, d.specialization);\r\n  }\r\n  \r\n  function checkDoctorInfo(uint64 _adhaar_number) public view returns(bool, address) {\r\n    \r\n    doctor memory d = doctors[msg.sender];\r\n    adhaar memory a = doctor_adhaar_info[msg.sender];\r\n    if (a.adhaar_number == _adhaar_number){\r\n      return (true, d.id);\r\n    }\r\n\r\n    else \r\n      return (false, d.id);\r\n\r\n  }\r\n\r\n  function checkPatientInfo(uint64 _adhaar_number) public view returns(bool, address) {\r\n    patient memory p = patients[msg.sender];\r\n    adhaar memory a = patient_adhaar_info[msg.sender];\r\n    if (a.adhaar_number == _adhaar_number){\r\n      return (true,p.id);\r\n    }\r\n\r\n    else \r\n      return (false,p.id);\r\n\r\n  }\r\n  \r\n  \r\n  function getPatientInfoForDoctor(address pat) public view returns(string memory, string memory, address, files[] memory){\r\n      patient memory p = patients[pat];\r\n      return (p.name, p.DOB, p.id, patientFiles[pat]);\r\n    }\r\n\r\n  function getHospitalInfo() public view returns(address, string memory, string memory)\r\n  {\r\n    hospital memory h = hospitals[msg.sender];\r\n    return (h.id, h.name, h.location);\r\n  }\r\n\r\n  function getOwnerInfo() public view  onlyOwner() returns(address)\r\n  {\r\n    return (owner);\r\n  }\r\n\r\n  function hospitalGrantAccess(address _user, address _patient) public checkPatient(_patient)\r\n  {\r\n    doctor storage d = doctors[_user];\r\n    patient storage p = patients[_patient];\r\n    if(d.id > address(0x0))\r\n    {\r\n      require(patientToDoctor[_patient][_user] < 1);// this means doctor already been access\r\n      \r\n      uint16 pos = (uint16)(p.doctor_list.push(_user));// new length of array\r\n      \r\n      patientToDoctor[_patient][_user] = pos;\r\n      d.patient_list.push(_patient);    \r\n    }\r\n  }\r\n\r\n  function addHospital(address _id, string memory _name, string memory _location) public onlyOwner(){\r\n    hospital memory h = hospitals[_id];\r\n    require(!(h.id > address(0x0)));\r\n    hospitals[_id] = hospital({id:_id, name:_name, location:_location});\r\n  }\r\n \r\n  function regInsuranceComp(address _id, string memory _name) public onlyOwner() {\r\n    insuranceComp memory i= insuranceCompanies[_id];\r\n    require(!(i.id> address(0x0)));\r\n    insuranceCompanies[_id] = insuranceComp({id:_id, name:_name, regPatients: new address[](0)});\r\n  } \r\n\r\n  function getInsuranceCompInfo() public view returns(address,string memory, address[] memory){\r\n    insuranceComp memory i= insuranceCompanies[msg.sender];\r\n    return(i.id,i.name,i.regPatients);\r\n  }\r\n\r\n  function addPatientToInsuranceComp(address _insuranceComp, address _pat) public{\r\n    insuranceComp storage i = insuranceCompanies[_insuranceComp];\r\n    require(i.regPatientsMapping[_pat]<1);\r\n    uint8 pos=(uint8)(i.regPatients.push(_pat));\r\n    i.regPatientsMapping[_pat]=pos;\r\n  }\r\n\r\n\r\n\r\n  function addDoctorAdhaarInfo(address _doc, string memory _name, string memory _DOB, uint24 _pincode, uint64 _adhaar_number) public {\r\n    adhaar memory a = doctor_adhaar_info[_doc];\r\n    require(a.adhaar_number == 0);\r\n    doctor_adhaar_info[_doc] = adhaar({id:_doc, pincode: _pincode, name: _name, DOB: _DOB, adhaar_number: _adhaar_number});\r\n  }\r\n\r\n  function addPatientAdhaarInfo(address _pat, string memory _name, string memory _DOB, uint24 _pincode, uint64 _adhaar_number) public {\r\n    adhaar memory a = patient_adhaar_info[_pat];\r\n    require(a.adhaar_number == 0);\r\n    patient_adhaar_info[_pat] = adhaar({id:_pat, pincode: _pincode, name: _name, DOB: _DOB, adhaar_number: _adhaar_number});\r\n  }\r\n  \r\n}",
  "sourcePath": "C:\\Users\\Ankush\\OneDrive\\Desktop\\EHR-using-Blockchain\\contracts\\optimized_healthCare.sol",
  "compiler": {
    "name": "solc",
    "version": "0.5.17+commit.d19bba13.Emscripten.clang"
  },
  "schemaVersion": "3.0.23",
  "updatedAt": "2024-03-12T04:39:14.741Z",
  "networkType": "ethereum",
  "devdoc": {
    "methods": {}
  },
  "userdoc": {
    "methods": {}
  }
}